{
  "_format": "hh-sol-artifact-1",
  "contractName": "NFTMarketplace",
  "sourceName": "contracts/NFTMarketplace.sol",
  "abi": [
    {
      "inputs": [
        {
          "internalType": "address",
          "name": "nftAddress_",
          "type": "address"
        },
        {
          "internalType": "uint256",
          "name": "tokenId_",
          "type": "uint256"
        }
      ],
      "name": "NFTMarketplace__AlreadyListed",
      "type": "error"
    },
    {
      "inputs": [],
      "name": "NFTMarketplace__NoProceeds",
      "type": "error"
    },
    {
      "inputs": [],
      "name": "NFTMarketplace__NotApprovedForMarketPlace",
      "type": "error"
    },
    {
      "inputs": [
        {
          "internalType": "address",
          "name": "nftAddress_",
          "type": "address"
        },
        {
          "internalType": "uint256",
          "name": "tokenId_",
          "type": "uint256"
        }
      ],
      "name": "NFTMarketplace__NotListed",
      "type": "error"
    },
    {
      "inputs": [],
      "name": "NFTMarketplace__NotOwner",
      "type": "error"
    },
    {
      "inputs": [],
      "name": "NFTMarketplace__PriceMustBeAboveZero",
      "type": "error"
    },
    {
      "inputs": [
        {
          "internalType": "address",
          "name": "nftAddress_",
          "type": "address"
        },
        {
          "internalType": "uint256",
          "name": "tokenId_",
          "type": "uint256"
        },
        {
          "internalType": "uint256",
          "name": "price_",
          "type": "uint256"
        }
      ],
      "name": "NFTMarketplace__PriceNotMet",
      "type": "error"
    },
    {
      "inputs": [],
      "name": "NFTMarketplace__TransferFailed",
      "type": "error"
    },
    {
      "anonymous": false,
      "inputs": [
        {
          "indexed": false,
          "internalType": "string",
          "name": "name_",
          "type": "string"
        },
        {
          "indexed": false,
          "internalType": "string",
          "name": "symbol_",
          "type": "string"
        },
        {
          "indexed": true,
          "internalType": "address",
          "name": "nftAddress_",
          "type": "address"
        }
      ],
      "name": "CollectionFound",
      "type": "event"
    },
    {
      "anonymous": false,
      "inputs": [
        {
          "indexed": true,
          "internalType": "address",
          "name": "buyer_",
          "type": "address"
        },
        {
          "indexed": true,
          "internalType": "address",
          "name": "nftAddress_",
          "type": "address"
        },
        {
          "indexed": true,
          "internalType": "uint256",
          "name": "tokenId_",
          "type": "uint256"
        },
        {
          "indexed": false,
          "internalType": "uint256",
          "name": "price_",
          "type": "uint256"
        }
      ],
      "name": "ItemBought",
      "type": "event"
    },
    {
      "anonymous": false,
      "inputs": [
        {
          "indexed": true,
          "internalType": "address",
          "name": "seller_",
          "type": "address"
        },
        {
          "indexed": true,
          "internalType": "address",
          "name": "nftAddress_",
          "type": "address"
        },
        {
          "indexed": true,
          "internalType": "uint256",
          "name": "tokenId_",
          "type": "uint256"
        },
        {
          "indexed": false,
          "internalType": "uint256",
          "name": "price_",
          "type": "uint256"
        }
      ],
      "name": "ItemListed",
      "type": "event"
    },
    {
      "anonymous": false,
      "inputs": [
        {
          "indexed": true,
          "internalType": "address",
          "name": "seller_",
          "type": "address"
        },
        {
          "indexed": true,
          "internalType": "address",
          "name": "nftAddress_",
          "type": "address"
        },
        {
          "indexed": true,
          "internalType": "uint256",
          "name": "tokenId_",
          "type": "uint256"
        }
      ],
      "name": "ItemRemoved",
      "type": "event"
    },
    {
      "inputs": [
        {
          "internalType": "address",
          "name": "nftAddress_",
          "type": "address"
        },
        {
          "internalType": "uint256",
          "name": "tokenId_",
          "type": "uint256"
        }
      ],
      "name": "buyItem",
      "outputs": [],
      "stateMutability": "payable",
      "type": "function"
    },
    {
      "inputs": [
        {
          "internalType": "address",
          "name": "nftAddress_",
          "type": "address"
        },
        {
          "internalType": "uint256",
          "name": "tokenId_",
          "type": "uint256"
        }
      ],
      "name": "cancelListing",
      "outputs": [],
      "stateMutability": "nonpayable",
      "type": "function"
    },
    {
      "inputs": [
        {
          "internalType": "address",
          "name": "nftAddress_",
          "type": "address"
        }
      ],
      "name": "getCollection",
      "outputs": [
        {
          "components": [
            {
              "internalType": "string",
              "name": "name",
              "type": "string"
            },
            {
              "internalType": "string",
              "name": "symbol",
              "type": "string"
            },
            {
              "internalType": "address",
              "name": "nftAddress",
              "type": "address"
            }
          ],
          "internalType": "struct NFTMarketplace.Collection",
          "name": "",
          "type": "tuple"
        }
      ],
      "stateMutability": "view",
      "type": "function"
    },
    {
      "inputs": [
        {
          "internalType": "address",
          "name": "nftAddress_",
          "type": "address"
        },
        {
          "internalType": "uint256",
          "name": "tokenId_",
          "type": "uint256"
        }
      ],
      "name": "getListing",
      "outputs": [
        {
          "components": [
            {
              "internalType": "uint256",
              "name": "price",
              "type": "uint256"
            },
            {
              "internalType": "address",
              "name": "seller",
              "type": "address"
            }
          ],
          "internalType": "struct NFTMarketplace.Listing",
          "name": "",
          "type": "tuple"
        }
      ],
      "stateMutability": "view",
      "type": "function"
    },
    {
      "inputs": [
        {
          "internalType": "address",
          "name": "seller_",
          "type": "address"
        }
      ],
      "name": "getProceeds",
      "outputs": [
        {
          "internalType": "uint256",
          "name": "",
          "type": "uint256"
        }
      ],
      "stateMutability": "view",
      "type": "function"
    },
    {
      "inputs": [
        {
          "internalType": "address",
          "name": "nftAddress_",
          "type": "address"
        },
        {
          "internalType": "uint256",
          "name": "tokenId_",
          "type": "uint256"
        },
        {
          "internalType": "uint256",
          "name": "price_",
          "type": "uint256"
        }
      ],
      "name": "listItem",
      "outputs": [],
      "stateMutability": "nonpayable",
      "type": "function"
    },
    {
      "inputs": [
        {
          "internalType": "address",
          "name": "nftAddress_",
          "type": "address"
        }
      ],
      "name": "newCollection",
      "outputs": [],
      "stateMutability": "nonpayable",
      "type": "function"
    },
    {
      "inputs": [
        {
          "internalType": "address",
          "name": "nftAddress_",
          "type": "address"
        },
        {
          "internalType": "uint256",
          "name": "tokenId_",
          "type": "uint256"
        },
        {
          "internalType": "uint256",
          "name": "newPrice_",
          "type": "uint256"
        }
      ],
      "name": "updateListing",
      "outputs": [],
      "stateMutability": "nonpayable",
      "type": "function"
    },
    {
      "inputs": [],
      "name": "withdrawProceeds",
      "outputs": [],
      "stateMutability": "nonpayable",
      "type": "function"
    }
  ],
  "bytecode": "0x608060405234801561001057600080fd5b50600160008190555061221d806100286000396000f3fe6080604052600436106100865760003560e01c80639f37092a116100595780639f37092a14610145578063b2ddee0614610161578063e1f0e3331461018a578063e40de887146101b3578063f772adf1146101f057610086565b806330cfeda91461008b57806388700d1c146100c857806389bfd38f146101055780639038e6931461012e575b600080fd5b34801561009757600080fd5b506100b260048036038101906100ad9190611a81565b610219565b6040516100bf9190611ac7565b60405180910390f35b3480156100d457600080fd5b506100ef60048036038101906100ea9190611b0e565b610262565b6040516100fc9190611b9b565b60405180910390f35b34801561011157600080fd5b5061012c60048036038101906101279190611bb6565b61032d565b005b34801561013a57600080fd5b506101436107ae565b005b61015f600480360381019061015a9190611b0e565b61096e565b005b34801561016d57600080fd5b5061018860048036038101906101839190611b0e565b610ddd565b005b34801561019657600080fd5b506101b160048036038101906101ac9190611a81565b6110cc565b005b3480156101bf57600080fd5b506101da60048036038101906101d59190611a81565b611461565b6040516101e79190611cf9565b60405180910390f35b3480156101fc57600080fd5b5061021760048036038101906102129190611bb6565b611634565b005b6000600260008373ffffffffffffffffffffffffffffffffffffffff1673ffffffffffffffffffffffffffffffffffffffff168152602001908152602001600020549050919050565b61026a611905565b600160008473ffffffffffffffffffffffffffffffffffffffff1673ffffffffffffffffffffffffffffffffffffffff1681526020019081526020016000206000838152602001908152602001600020604051806040016040529081600082015481526020016001820160009054906101000a900473ffffffffffffffffffffffffffffffffffffffff1673ffffffffffffffffffffffffffffffffffffffff1673ffffffffffffffffffffffffffffffffffffffff1681525050905092915050565b8282336000600160008573ffffffffffffffffffffffffffffffffffffffff1673ffffffffffffffffffffffffffffffffffffffff1681526020019081526020016000206000848152602001908152602001600020604051806040016040529081600082015481526020016001820160009054906101000a900473ffffffffffffffffffffffffffffffffffffffff1673ffffffffffffffffffffffffffffffffffffffff1673ffffffffffffffffffffffffffffffffffffffff1681525050905060008160000151111561043b5783836040517fe3775ccb000000000000000000000000000000000000000000000000000000008152600401610432929190611d2a565b60405180910390fd5b868633600083905060008173ffffffffffffffffffffffffffffffffffffffff16636352211e856040518263ffffffff1660e01b815260040161047e9190611ac7565b60206040518083038186803b15801561049657600080fd5b505afa1580156104aa573d6000803e3d6000fd5b505050506040513d601f19601f820116820180604052508101906104ce9190611d68565b90508073ffffffffffffffffffffffffffffffffffffffff168373ffffffffffffffffffffffffffffffffffffffff1614610535576040517f98ca622600000000000000000000000000000000000000000000000000000000815260040160405180910390fd5b60008a1161056f576040517f1d39a2e400000000000000000000000000000000000000000000000000000000815260040160405180910390fd5b60008c90503073ffffffffffffffffffffffffffffffffffffffff168173ffffffffffffffffffffffffffffffffffffffff1663081812fc8e6040518263ffffffff1660e01b81526004016105c49190611ac7565b60206040518083038186803b1580156105dc57600080fd5b505afa1580156105f0573d6000803e3d6000fd5b505050506040513d601f19601f820116820180604052508101906106149190611d68565b73ffffffffffffffffffffffffffffffffffffffff1614610661576040517fef0bfde700000000000000000000000000000000000000000000000000000000815260040160405180910390fd5b60405180604001604052808c81526020013373ffffffffffffffffffffffffffffffffffffffff16815250600160008f73ffffffffffffffffffffffffffffffffffffffff1673ffffffffffffffffffffffffffffffffffffffff16815260200190815260200160002060008e81526020019081526020016000206000820151816000015560208201518160010160006101000a81548173ffffffffffffffffffffffffffffffffffffffff021916908373ffffffffffffffffffffffffffffffffffffffff1602179055509050506107398d6110cc565b8b8d73ffffffffffffffffffffffffffffffffffffffff163373ffffffffffffffffffffffffffffffffffffffff167fd547e933094f12a9159076970143ebe73234e64480317844b0dcb36117116de48e6040516107979190611ac7565b60405180910390a450505050505050505050505050565b600260005414156107f4576040517f08c379a00000000000000000000000000000000000000000000000000000000081526004016107eb90611df2565b60405180910390fd5b60026000819055506000600260003373ffffffffffffffffffffffffffffffffffffffff1673ffffffffffffffffffffffffffffffffffffffff1681526020019081526020016000205490506000811161087a576040517faf2d092000000000000000000000000000000000000000000000000000000000815260040160405180910390fd5b6000600260003373ffffffffffffffffffffffffffffffffffffffff1673ffffffffffffffffffffffffffffffffffffffff1681526020019081526020016000208190555060003373ffffffffffffffffffffffffffffffffffffffff16826040516108e590611e43565b60006040518083038185875af1925050503d8060008114610922576040519150601f19603f3d011682016040523d82523d6000602084013e610927565b606091505b5050905080610962576040517fe5f1fa3c00000000000000000000000000000000000000000000000000000000815260040160405180910390fd5b50506001600081905550565b81816000600160008473ffffffffffffffffffffffffffffffffffffffff1673ffffffffffffffffffffffffffffffffffffffff1681526020019081526020016000206000838152602001908152602001600020604051806040016040529081600082015481526020016001820160009054906101000a900473ffffffffffffffffffffffffffffffffffffffff1673ffffffffffffffffffffffffffffffffffffffff1673ffffffffffffffffffffffffffffffffffffffff168152505090506000816000015111610a7a5782826040517f8a2f0a02000000000000000000000000000000000000000000000000000000008152600401610a71929190611d2a565b60405180910390fd5b60026000541415610ac0576040517f08c379a0000000000000000000000000000000000000000000000000000000008152600401610ab790611df2565b60405180910390fd5b60026000819055506000600160008773ffffffffffffffffffffffffffffffffffffffff1673ffffffffffffffffffffffffffffffffffffffff1681526020019081526020016000206000868152602001908152602001600020604051806040016040529081600082015481526020016001820160009054906101000a900473ffffffffffffffffffffffffffffffffffffffff1673ffffffffffffffffffffffffffffffffffffffff1673ffffffffffffffffffffffffffffffffffffffff168152505090508060000151341015610bd857858582600001516040517f189382d1000000000000000000000000000000000000000000000000000000008152600401610bcf93929190611e58565b60405180910390fd5b3460026000836020015173ffffffffffffffffffffffffffffffffffffffff1673ffffffffffffffffffffffffffffffffffffffff16815260200190815260200160002054610c279190611ebe565b60026000836020015173ffffffffffffffffffffffffffffffffffffffff1673ffffffffffffffffffffffffffffffffffffffff16815260200190815260200160002081905550600160008773ffffffffffffffffffffffffffffffffffffffff1673ffffffffffffffffffffffffffffffffffffffff16815260200190815260200160002060008681526020019081526020016000206000808201600090556001820160006101000a81549073ffffffffffffffffffffffffffffffffffffffff021916905550508573ffffffffffffffffffffffffffffffffffffffff166342842e0e826020015133886040518463ffffffff1660e01b8152600401610d3193929190611f14565b600060405180830381600087803b158015610d4b57600080fd5b505af1158015610d5f573d6000803e3d6000fd5b50505050848673ffffffffffffffffffffffffffffffffffffffff163373ffffffffffffffffffffffffffffffffffffffff167f263223b1dd81e51054a4e6f791d45a4a1ddb4aadcd93a2dfd892615c3fdac1878460000151604051610dc59190611ac7565b60405180910390a45060016000819055505050505050565b818133600083905060008173ffffffffffffffffffffffffffffffffffffffff16636352211e856040518263ffffffff1660e01b8152600401610e209190611ac7565b60206040518083038186803b158015610e3857600080fd5b505afa158015610e4c573d6000803e3d6000fd5b505050506040513d601f19601f82011682018060405250810190610e709190611d68565b90508073ffffffffffffffffffffffffffffffffffffffff168373ffffffffffffffffffffffffffffffffffffffff1614610ed7576040517f98ca622600000000000000000000000000000000000000000000000000000000815260040160405180910390fd5b86866000600160008473ffffffffffffffffffffffffffffffffffffffff1673ffffffffffffffffffffffffffffffffffffffff1681526020019081526020016000206000838152602001908152602001600020604051806040016040529081600082015481526020016001820160009054906101000a900473ffffffffffffffffffffffffffffffffffffffff1673ffffffffffffffffffffffffffffffffffffffff1673ffffffffffffffffffffffffffffffffffffffff168152505090506000816000015111610fe35782826040517f8a2f0a02000000000000000000000000000000000000000000000000000000008152600401610fda929190611d2a565b60405180910390fd5b600160008b73ffffffffffffffffffffffffffffffffffffffff1673ffffffffffffffffffffffffffffffffffffffff16815260200190815260200160002060008a81526020019081526020016000206000808201600090556001820160006101000a81549073ffffffffffffffffffffffffffffffffffffffff02191690555050888a73ffffffffffffffffffffffffffffffffffffffff163373ffffffffffffffffffffffffffffffffffffffff167f6fb52b3aae757e1f2c2ff7ac5f33117b9ca31a59c307996e32e98f48f5b7df2e60405160405180910390a450505050505050505050565b60008190508073ffffffffffffffffffffffffffffffffffffffff166306fdde036040518163ffffffff1660e01b815260040160006040518083038186803b15801561111757600080fd5b505afa15801561112b573d6000803e3d6000fd5b505050506040513d6000823e3d601f19601f820116820180604052508101906111549190612071565b60049080519060200190611169929190611935565b508073ffffffffffffffffffffffffffffffffffffffff166395d89b416040518163ffffffff1660e01b815260040160006040518083038186803b1580156111b057600080fd5b505afa1580156111c4573d6000803e3d6000fd5b505050506040513d6000823e3d601f19601f820116820180604052508101906111ed9190612071565b60059080519060200190611202929190611935565b5060405180606001604052806004805461121b906120e9565b80601f0160208091040260200160405190810160405280929190818152602001828054611247906120e9565b80156112945780601f1061126957610100808354040283529160200191611294565b820191906000526020600020905b81548152906001019060200180831161127757829003601f168201915b50505050508152602001600580546112ab906120e9565b80601f01602080910402602001604051908101604052809291908181526020018280546112d7906120e9565b80156113245780601f106112f957610100808354040283529160200191611324565b820191906000526020600020905b81548152906001019060200180831161130757829003601f168201915b505050505081526020018373ffffffffffffffffffffffffffffffffffffffff16815250600360008473ffffffffffffffffffffffffffffffffffffffff1673ffffffffffffffffffffffffffffffffffffffff16815260200190815260200160002060008201518160000190805190602001906113a3929190611935565b5060208201518160010190805190602001906113c0929190611935565b5060408201518160020160006101000a81548173ffffffffffffffffffffffffffffffffffffffff021916908373ffffffffffffffffffffffffffffffffffffffff1602179055509050508173ffffffffffffffffffffffffffffffffffffffff167fbb0a0167c26cad9b76616a5232a2b25b74f2a2c70edf968fd247855c0dbb6104600460056040516114559291906121b0565b60405180910390a25050565b6114696119bb565b600360008373ffffffffffffffffffffffffffffffffffffffff1673ffffffffffffffffffffffffffffffffffffffff1681526020019081526020016000206040518060600160405290816000820180546114c3906120e9565b80601f01602080910402602001604051908101604052809291908181526020018280546114ef906120e9565b801561153c5780601f106115115761010080835404028352916020019161153c565b820191906000526020600020905b81548152906001019060200180831161151f57829003601f168201915b50505050508152602001600182018054611555906120e9565b80601f0160208091040260200160405190810160405280929190818152602001828054611581906120e9565b80156115ce5780601f106115a3576101008083540402835291602001916115ce565b820191906000526020600020905b8154815290600101906020018083116115b157829003601f168201915b505050505081526020016002820160009054906101000a900473ffffffffffffffffffffffffffffffffffffffff1673ffffffffffffffffffffffffffffffffffffffff1673ffffffffffffffffffffffffffffffffffffffff16815250509050919050565b828233600083905060008173ffffffffffffffffffffffffffffffffffffffff16636352211e856040518263ffffffff1660e01b81526004016116779190611ac7565b60206040518083038186803b15801561168f57600080fd5b505afa1580156116a3573d6000803e3d6000fd5b505050506040513d601f19601f820116820180604052508101906116c79190611d68565b90508073ffffffffffffffffffffffffffffffffffffffff168373ffffffffffffffffffffffffffffffffffffffff161461172e576040517f98ca622600000000000000000000000000000000000000000000000000000000815260040160405180910390fd5b87876000600160008473ffffffffffffffffffffffffffffffffffffffff1673ffffffffffffffffffffffffffffffffffffffff1681526020019081526020016000206000838152602001908152602001600020604051806040016040529081600082015481526020016001820160009054906101000a900473ffffffffffffffffffffffffffffffffffffffff1673ffffffffffffffffffffffffffffffffffffffff1673ffffffffffffffffffffffffffffffffffffffff16815250509050600081600001511161183a5782826040517f8a2f0a02000000000000000000000000000000000000000000000000000000008152600401611831929190611d2a565b60405180910390fd5b88600160008d73ffffffffffffffffffffffffffffffffffffffff1673ffffffffffffffffffffffffffffffffffffffff16815260200190815260200160002060008c815260200190815260200160002060000181905550898b73ffffffffffffffffffffffffffffffffffffffff163373ffffffffffffffffffffffffffffffffffffffff167fd547e933094f12a9159076970143ebe73234e64480317844b0dcb36117116de48c6040516118f09190611ac7565b60405180910390a45050505050505050505050565b604051806040016040528060008152602001600073ffffffffffffffffffffffffffffffffffffffff1681525090565b828054611941906120e9565b90600052602060002090601f01602090048101928261196357600085556119aa565b82601f1061197c57805160ff19168380011785556119aa565b828001600101855582156119aa579182015b828111156119a957825182559160200191906001019061198e565b5b5090506119b791906119f2565b5090565b60405180606001604052806060815260200160608152602001600073ffffffffffffffffffffffffffffffffffffffff1681525090565b5b80821115611a0b5760008160009055506001016119f3565b5090565b6000604051905090565b600080fd5b600080fd5b600073ffffffffffffffffffffffffffffffffffffffff82169050919050565b6000611a4e82611a23565b9050919050565b611a5e81611a43565b8114611a6957600080fd5b50565b600081359050611a7b81611a55565b92915050565b600060208284031215611a9757611a96611a19565b5b6000611aa584828501611a6c565b91505092915050565b6000819050919050565b611ac181611aae565b82525050565b6000602082019050611adc6000830184611ab8565b92915050565b611aeb81611aae565b8114611af657600080fd5b50565b600081359050611b0881611ae2565b92915050565b60008060408385031215611b2557611b24611a19565b5b6000611b3385828601611a6c565b9250506020611b4485828601611af9565b9150509250929050565b611b5781611aae565b82525050565b611b6681611a43565b82525050565b604082016000820151611b826000850182611b4e565b506020820151611b956020850182611b5d565b50505050565b6000604082019050611bb06000830184611b6c565b92915050565b600080600060608486031215611bcf57611bce611a19565b5b6000611bdd86828701611a6c565b9350506020611bee86828701611af9565b9250506040611bff86828701611af9565b9150509250925092565b600081519050919050565b600082825260208201905092915050565b60005b83811015611c43578082015181840152602081019050611c28565b83811115611c52576000848401525b50505050565b6000601f19601f8301169050919050565b6000611c7482611c09565b611c7e8185611c14565b9350611c8e818560208601611c25565b611c9781611c58565b840191505092915050565b60006060830160008301518482036000860152611cbf8282611c69565b91505060208301518482036020860152611cd98282611c69565b9150506040830151611cee6040860182611b5d565b508091505092915050565b60006020820190508181036000830152611d138184611ca2565b905092915050565b611d2481611a43565b82525050565b6000604082019050611d3f6000830185611d1b565b611d4c6020830184611ab8565b9392505050565b600081519050611d6281611a55565b92915050565b600060208284031215611d7e57611d7d611a19565b5b6000611d8c84828501611d53565b91505092915050565b600082825260208201905092915050565b7f5265656e7472616e637947756172643a207265656e7472616e742063616c6c00600082015250565b6000611ddc601f83611d95565b9150611de782611da6565b602082019050919050565b60006020820190508181036000830152611e0b81611dcf565b9050919050565b600081905092915050565b50565b6000611e2d600083611e12565b9150611e3882611e1d565b600082019050919050565b6000611e4e82611e20565b9150819050919050565b6000606082019050611e6d6000830186611d1b565b611e7a6020830185611ab8565b611e876040830184611ab8565b949350505050565b7f4e487b7100000000000000000000000000000000000000000000000000000000600052601160045260246000fd5b6000611ec982611aae565b9150611ed483611aae565b9250827fffffffffffffffffffffffffffffffffffffffffffffffffffffffffffffffff03821115611f0957611f08611e8f565b5b828201905092915050565b6000606082019050611f296000830186611d1b565b611f366020830185611d1b565b611f436040830184611ab8565b949350505050565b600080fd5b600080fd5b7f4e487b7100000000000000000000000000000000000000000000000000000000600052604160045260246000fd5b611f8d82611c58565b810181811067ffffffffffffffff82111715611fac57611fab611f55565b5b80604052505050565b6000611fbf611a0f565b9050611fcb8282611f84565b919050565b600067ffffffffffffffff821115611feb57611fea611f55565b5b611ff482611c58565b9050602081019050919050565b600061201461200f84611fd0565b611fb5565b9050828152602081018484840111156120305761202f611f50565b5b61203b848285611c25565b509392505050565b600082601f83011261205857612057611f4b565b5b8151612068848260208601612001565b91505092915050565b60006020828403121561208757612086611a19565b5b600082015167ffffffffffffffff8111156120a5576120a4611a1e565b5b6120b184828501612043565b91505092915050565b7f4e487b7100000000000000000000000000000000000000000000000000000000600052602260045260246000fd5b6000600282049050600182168061210157607f821691505b60208210811415612115576121146120ba565b5b50919050565b60008190508160005260206000209050919050565b6000815461213d816120e9565b6121478186611d95565b945060018216600081146121625760018114612174576121a7565b60ff19831686526020860193506121a7565b61217d8561211b565b60005b8381101561219f57815481890152600182019150602081019050612180565b808801955050505b50505092915050565b600060408201905081810360008301526121ca8185612130565b905081810360208301526121de8184612130565b9050939250505056fea2646970667358221220a2852aeb33fdc13c3598e4db47a7c139ebf8e045681f59889bedb8257af0310864736f6c63430008080033",
  "linkReferences": {},
  "deployedLinkReferences": {}
}